{"abi":[{"type":"constructor","inputs":[{"name":"_password","type":"bytes32","internalType":"bytes32"},{"name":"_data","type":"bytes32[15]","internalType":"bytes32[15]"}],"stateMutability":"nonpayable"},{"type":"receive","stateMutability":"payable"},{"type":"function","name":"addPoint","inputs":[],"outputs":[],"stateMutability":"nonpayable"},{"type":"function","name":"balanceOf","inputs":[{"name":"_owner","type":"address","internalType":"address"}],"outputs":[{"name":"balance","type":"uint256","internalType":"uint256"}],"stateMutability":"view"},{"type":"function","name":"consecutiveWins","inputs":[{"name":"","type":"address","internalType":"address"}],"outputs":[{"name":"","type":"uint256","internalType":"uint256"}],"stateMutability":"view"},{"type":"function","name":"contribute","inputs":[],"outputs":[],"stateMutability":"payable"},{"type":"function","name":"contributions","inputs":[{"name":"","type":"address","internalType":"address"}],"outputs":[{"name":"","type":"uint256","internalType":"uint256"}],"stateMutability":"view"},{"type":"function","name":"flip","inputs":[{"name":"_guess","type":"bool","internalType":"bool"}],"outputs":[{"name":"","type":"bool","internalType":"bool"}],"stateMutability":"nonpayable"},{"type":"function","name":"getConsecutiveWins","inputs":[{"name":"_addr","type":"address","internalType":"address"}],"outputs":[{"name":"","type":"uint256","internalType":"uint256"}],"stateMutability":"view"},{"type":"function","name":"getContribution","inputs":[],"outputs":[{"name":"","type":"uint256","internalType":"uint256"}],"stateMutability":"view"},{"type":"function","name":"getMarks","inputs":[{"name":"_addr","type":"address","internalType":"address"}],"outputs":[{"name":"","type":"uint256","internalType":"uint256"}],"stateMutability":"view"},{"type":"function","name":"goTo","inputs":[{"name":"_floor","type":"uint256","internalType":"uint256"}],"outputs":[],"stateMutability":"nonpayable"},{"type":"function","name":"lock","inputs":[],"outputs":[],"stateMutability":"nonpayable"},{"type":"function","name":"marks","inputs":[{"name":"","type":"address","internalType":"address"}],"outputs":[{"name":"","type":"uint256","internalType":"uint256"}],"stateMutability":"view"},{"type":"function","name":"owner","inputs":[],"outputs":[{"name":"","type":"address","internalType":"address"}],"stateMutability":"view"},{"type":"function","name":"sendKey","inputs":[{"name":"_key","type":"bytes16","internalType":"bytes16"}],"outputs":[],"stateMutability":"nonpayable"},{"type":"function","name":"sendPassword","inputs":[{"name":"_password","type":"bytes32","internalType":"bytes32"}],"outputs":[],"stateMutability":"nonpayable"},{"type":"function","name":"top","inputs":[{"name":"","type":"address","internalType":"address"}],"outputs":[{"name":"","type":"bool","internalType":"bool"}],"stateMutability":"view"},{"type":"function","name":"transfer","inputs":[{"name":"_to","type":"address","internalType":"address"},{"name":"_value","type":"uint256","internalType":"uint256"}],"outputs":[{"name":"","type":"bool","internalType":"bool"}],"stateMutability":"nonpayable"},{"type":"function","name":"unlocked","inputs":[],"outputs":[{"name":"","type":"bool","internalType":"bool"}],"stateMutability":"view"},{"type":"function","name":"userFloor","inputs":[{"name":"","type":"address","internalType":"address"}],"outputs":[{"name":"","type":"uint256","internalType":"uint256"}],"stateMutability":"view"}],"bytecode":{"object":"0x60806040527a0f4159f0a7a75ccde1410bf8db747becd82c5b0daf1f43ddbb0a6d600055601a805460ff1916600117905534801561003c57600080fd5b50604051610fd6380380610fd6833981810160405261020081101561006057600080fd5b508051600180546001600160a01b0319163317905560038190559060200161008b600482600f610093565b5050506100e6565b82600f81019282156100c1579160200282015b828111156100c15782518255916020019190600101906100a6565b506100cd9291506100d1565b5090565b5b808211156100cd57600081556001016100d2565b610ee1806100f56000396000f3fe6080604052600436106101185760003560e01c806370a08231116100a0578063cd30229011610064578063cd302290146104c8578063d7bb99ba146104fb578063ed9a713414610503578063f10fdf5c1461052d578063f83d08ba146105425761021a565b806370a08231146103c45780638da5cb5b146103f757806393a926e9146104285780639d3ad91a1461045b578063a9059cbb1461048f5761021a565b806342e94c90116100e757806342e94c901461030a5780635c8d2c381461033d578063619172b7146103675780636a5e26501461039a5780636bf39aaa146103af5761021a565b806306ff51b11461021f578063143af907146102645780631b1a1e24146102975780631d263f67146102ca5761021a565b3661021a57601a5460ff16610166576040805162461bcd60e51b815260206004820152600f60248201526e10dbdb9d1c9858dd08131bd8dad959608a1b604482015290519081900360640190fd5b60003411801561018457503360009081526014602052604090205415155b61018d57600080fd5b33600090815260186020526040908190208151667265636569766560c81b8152600781019190915290519081900360270190205460ff1661021857336000908152601560209081526040808320805460030190556018909152908190208151667265636569766560c81b815260078101919091529051908190036027019020805460ff191660011790555b005b600080fd5b34801561022b57600080fd5b506102526004803603602081101561024257600080fd5b50356001600160a01b0316610557565b60408051918252519081900360200190f35b34801561027057600080fd5b506102526004803603602081101561028757600080fd5b50356001600160a01b0316610576565b3480156102a357600080fd5b50610252600480360360208110156102ba57600080fd5b50356001600160a01b0316610588565b3480156102d657600080fd5b506102f6600480360360208110156102ed57600080fd5b5035151561059a565b604080519115158252519081900360200190f35b34801561031657600080fd5b506102526004803603602081101561032d57600080fd5b50356001600160a01b03166106ff565b34801561034957600080fd5b506102186004803603602081101561036057600080fd5b5035610711565b34801561037357600080fd5b506102f66004803603602081101561038a57600080fd5b50356001600160a01b0316610839565b3480156103a657600080fd5b506102f661084e565b3480156103bb57600080fd5b50610218610857565b3480156103d057600080fd5b50610252600480360360208110156103e757600080fd5b50356001600160a01b031661093a565b34801561040357600080fd5b5061040c610955565b604080516001600160a01b039092168252519081900360200190f35b34801561043457600080fd5b506102526004803603602081101561044b57600080fd5b50356001600160a01b0316610964565b34801561046757600080fd5b506102186004803603602081101561047e57600080fd5b50356001600160801b03191661097f565b34801561049b57600080fd5b506102f6600480360360408110156104b257600080fd5b506001600160a01b038135169060200135610a70565b3480156104d457600080fd5b50610252600480360360208110156104eb57600080fd5b50356001600160a01b0316610b90565b610218610ba2565b34801561050f57600080fd5b506102186004803603602081101561052657600080fd5b5035610c46565b34801561053957600080fd5b50610252610e39565b34801561054e57600080fd5b50610218610e4c565b6001600160a01b0381166000908152601560205260409020545b919050565b60166020526000908152604090205481565b60156020526000908152604090205481565b601a5460009060ff166105e6576040805162461bcd60e51b815260206004820152600f60248201526e10dbdb9d1c9858dd08131bd8dad959608a1b604482015290519081900360640190fd5b600254600019430140908114156105fc57600080fd5b600281905560008054828161060d57fe5b049050600081600114610621576000610624565b60015b905084151581151514156106e257326000908152601660205260409020805460010190819055600a14156106d65732600090815260186020526040908190208151630666c69760e41b8152600481019190915290519081900360240190205460ff166106d657326000908152601560209081526040808320805460049081019091556018909252918290208251630666c69760e41b8152918201529051908190036024019020805460ff191660011790555b60019350505050610571565b505033600090815260166020526040812081905591506105719050565b60146020526000908152604090205481565b601a5460ff1661075a576040805162461bcd60e51b815260206004820152600f60248201526e10dbdb9d1c9858dd08131bd8dad959608a1b604482015290519081900360640190fd5b80600354146107a1576040805162461bcd60e51b815260206004820152600e60248201526d15dc9bdb99c81c185cdcdddbdc9960921b604482015290519081900360640190fd5b336000908152601860205260409081902081516b1cd95b9914185cdcdddbdc9960a21b8152600c810191909152905190819003602c0190205460ff16610836573360009081526015602090815260408083208054600301905560189091529081902081516b1cd95b9914185cdcdddbdc9960a21b8152600c810191909152905190819003602c019020805460ff191660011790555b50565b60196020526000908152604090205460ff1681565b601a5460ff1681565b601a5460ff166108a0576040805162461bcd60e51b815260206004820152600f60248201526e10dbdb9d1c9858dd08131bd8dad959608a1b604482015290519081900360640190fd5b323314610938573260009081526018602052604090819020815167185919141bda5b9d60c21b8152600881019190915290519081900360280190205460ff166109385732600090815260156020908152604080832080546001908101909155601890925291829020825167185919141bda5b9d60c21b81526008810191909152915191829003602801909120805460ff191690911790555b565b6001600160a01b031660009081526017602052604090205490565b6001546001600160a01b031681565b6001600160a01b031660009081526016602052604090205490565b601a5460ff166109c8576040805162461bcd60e51b815260206004820152600f60248201526e10dbdb9d1c9858dd08131bd8dad959608a1b604482015290519081900360640190fd5b6010546001600160801b03198281169116146109e357600080fd5b336000908152601860205260409081902081516673656e644b657960c81b8152600781019190915290519081900360270190205460ff16610836573360009081526015602090815260408083208054600401905560189091529081902081516673656e644b657960c81b815260078101919091529051908190036027019020805460ff1916600117905550565b601a5460009060ff16610abc576040805162461bcd60e51b815260206004820152600f60248201526e10dbdb9d1c9858dd08131bd8dad959608a1b604482015290519081900360640190fd5b33600081815260176020526040808220805486900381556001600160a01b038716835290822080548601905591905254620f42401015610b875733600090815260186020526040908190208151673a3930b739b332b960c11b8152600881019190915290519081900360280190205460ff16610b8757336000908152601560209081526040808320805460019081019091556018909252918290208251673a3930b739b332b960c11b81526008810191909152915191829003602801909120805460ff191690911790555b50600192915050565b60136020526000908152604090205481565b601a5460ff16610beb576040805162461bcd60e51b815260206004820152600f60248201526e10dbdb9d1c9858dd08131bd8dad959608a1b604482015290519081900360640190fd5b66038d7ea4c680003410610bfe57600080fd5b3360008181526014602052604080822080543401908190556001546001600160a01b031683529082205492909152111561093857600180546001600160a01b03191633179055565b601a5460ff16610c8f576040805162461bcd60e51b815260206004820152600f60248201526e10dbdb9d1c9858dd08131bd8dad959608a1b604482015290519081900360640190fd5b60408051632fcd25e560e11b815260048101839052905133918291635f9a4bca916024808201926020929091908290030181600087803b158015610cd257600080fd5b505af1158015610ce6573d6000803e3d6000fd5b505050506040513d6020811015610cfc57600080fd5b5051610e35573260009081526013602090815260408083208590558051632fcd25e560e11b81526004810186905290516001600160a01b03851693635f9a4bca93602480850194919392918390030190829087803b158015610d5d57600080fd5b505af1158015610d71573d6000803e3d6000fd5b505050506040513d6020811015610d8757600080fd5b5051326000908152601960205260409020805460ff1916911515919091179081905560ff1615610e35573260009081526018602052604090819020815163676f546f60e01b8152600481019190915290519081900360240190205460ff16610e355732600090815260156020908152604080832080546004908101909155601890925291829020825163676f546f60e01b8152918201529051908190036024019020805460ff191660011790555b5050565b3360009081526014602052604090205490565b6001546001600160a01b03163314610e97576040805162461bcd60e51b81526020600482015260096024820152682737ba1027bbb732b960b91b604482015290519081900360640190fd5b601a805460ff19811660ff9091161517905556fea2646970667358221220c145ea5c21fce465437ccb5ba2be161404c3ee5e1ec9f4d0413fb7dc0357906b64736f6c63430007000033","linkReferences":{}},"methodIdentifiers":{"addPoint()":"6bf39aaa","balanceOf(address)":"70a08231","consecutiveWins(address)":"143af907","contribute()":"d7bb99ba","contributions(address)":"42e94c90","flip(bool)":"1d263f67","getConsecutiveWins(address)":"93a926e9","getContribution()":"f10fdf5c","getMarks(address)":"06ff51b1","goTo(uint256)":"ed9a7134","lock()":"f83d08ba","marks(address)":"1b1a1e24","owner()":"8da5cb5b","sendKey(bytes16)":"9d3ad91a","sendPassword(bytes32)":"5c8d2c38","top(address)":"619172b7","transfer(address,uint256)":"a9059cbb","unlocked()":"6a5e2650","userFloor(address)":"cd302290"},"id":20}